:100000000C9437030C94C4030C94C4030C94C403E1
:100010000C94C4030C94C4030C945F060C948906DE
:100020000C94B3060C94C4030C94F7090C94C40309
:100030000C94C4030C94C4030C94C4030C94C40324
:100040000C9496050C94DD060C94C4030C94C40324
:100050000C9485090C94C4030C94D9050C941407D2
:100060000C94C4030C94C4030C94C4030C94C403F4
:100070000C94C4030C94C4030C94C4030C94C403E4
:100080000C94C4030C94C4030C94C4030C94C403D4
:100090000C94C4030C94C4030C94C4030C94C403C4
:1000A0000C94C4030C94C4030C94C4030C94C403B4
:1000B0000C94C4030C94C4030C946D0A0C94C403F4
:1000C0000C94C4030C94C4030C94C4030C94C40394
:1000D0000C94C4030C94C4030C94C4030C94C40384
:1000E0000C94C4030C94C4030C94C4030C94C40374
:1000F0000C94C4030C94C4030C94C4030C94C40364
:100100000C94C4030C94C4030C94C4030C94C40353
:100110000C94C4030C94C4030C94C4030C94C40343
:100120000C94C4030C94C4030C94C4030C94C40333
:100130000C94C4030C94C4030C94C4030C94C40323
:100140000C94C4030C94C4030C94C4030C94C40313
:100150000C94C4030C94C4030C94C4030C94C40303
:100160000C94C4030C94C4030C94C4030C94C403F3
:100170000C94C4030C94C4030C94C4030C94C403E3
:100180000C94C4030C94C4030C94C4030C94C403D3
:100190000C940D090C94C4030C94C4030C94C40374
:1001A0000C94C4030C94C4030C94C4030C94890BE6
:1001B0000C94C4030C94C4030C94C4030C94C403A3
:1001C0000C94C4030C94C4030C948F080C94C403C3
:1001D0000C941C060C944B070C94C4030C94C4039D
:1001E0000C94C4030C94C4030C94C4030C94C40373
:1001F0000C94C4030C9444130C948F130D002530FD
:1002000032582000A00840064006010200080810ED
:10021000014B4C06210062B0084006400610204009
:10022000080920014E4F49210166B00BE006000786
:100230007E7E400B0A3001AEAF8C21027E10204042
:10024000020408646562756731000D0A52656475C1
:100250006E64616E742048756220286275696C64F2
:10026000202575204A756C203238203230323120FA
:1002700031333A30373A3438290D0A000D0A00502C
:100280004F52004558542000424F522000574452CC
:100290002000504449200053522000526573657479
:1002A0003A200059616D614E656B6F0001000001DD
:1002B00000000100080000200070726F6A3D257583
:1002C0000D0A00616464723D25750D0A000205087F
:1002D000300F0505081E0F0206080E0F2C06089C9D
:1002E0000F220608FE0E0106086E0F250308400FB8
:1002F0000B0608EE0E0000C1C081C1400101C3C061
:1003000003800241C201C6C006800741C70005C183
:10031000C581C4400401CCC00C800D41CD000FC18B
:10032000CF81CE400E000AC1CA81CB400B01C9C0AB
:1003300009800841C801D8C018801941D9001BC1E3
:10034000DB81DA401A001EC1DE81DF401F01DDC003
:100350001D801C41DC0014C1D481D5401501D7C0DB
:1003600017801641D601D2C012801341D30011C1AB
:10037000D181D0401001F0C030803141F10033C153
:10038000F381F240320036C1F681F7403701F5C003
:1003900035803441F4003CC1FC81FD403D01FFC08B
:1003A0003F803E41FE01FAC03A803B41FB0039C12B
:1003B000F981F840380028C1E881E9402901EBC003
:1003C0002B802A41EA01EEC02E802F41EF002DC183
:1003D000ED81EC402C01E4C024802541E50027C1DB
:1003E000E781E640260022C1E281E3402301E1C02B
:1003F00021802041E001A0C060806141A10063C173
:10040000A381A240620066C1A681A7406701A5C082
:1004100065806441A4006CC1AC81AD406D01AFC08A
:100420006F806E41AE01AAC06A806B41AB0069C1AA
:10043000A981A840680078C1B881B9407901BBC0E2
:100440007B807A41BA01BEC07E807F41BF007DC102
:10045000BD81BC407C01B4C074807541B50077C1DA
:10046000B781B640760072C1B281B3407301B1C0AA
:1004700071807041B00050C190819140510193C092
:1004800053805241920196C056805741970055C102
:100490009581944054019CC05C805D419D005FC18A
:1004A0009F819E405E005AC19A819B405B0199C02A
:1004B00059805841980188C04880494189004BC102
:1004C0008B818A404A004EC18E818F404F018DC082
:1004D0004D804C418C0044C184818540450187C0DA
:1004E00047804641860182C042804341830041C12A
:1004F0008181804040C200000000010500020084AC
:100500000000000700000028004400650076006934
:10051000006300650049006E0074006500720066AB
:100520000061006300650047005500490044000079
:10053000004E0000007B00340032003300310034F4
:10054000003200330031002D003500410038003109
:10055000002D0034003900460030002D00420043D9
:1005600000330044002D00410034004600460031B5
:100570000033003800320031003600440037007D7F
:1005800000000034000000070000000C004C006177
:1005900000620065006C0000001A0000004E00615F
:1005A000006D006500350036003700380039004125
:1005B00000420000000000280000000001040001CB
:1005C00000000000000000000157494E5553420052
:1005D0000000000000000000000000000000001209
:1005E000034D00530046005400310030003000221B
:1005F0000000001003520075006E00740069006D69
:1006000000650000001403480075006200200044EB
:10061000006500620075006700000008034600479F
:100620000053000000040309040902320002010023
:1006300080320904000002FF00000007058102402B
:100640000000070502024000000904010000FE014D
:10065000011009210900000001010112010002FF3F
:100660000000409999010000010102000100ECEC3A
:10067000E1E021E038ED34BF208340B921B9E2B98F
:10068000F3B958C0E0E5E0E0208122602083E1E595
:10069000E0E0208121FFFDCFE0E4E0E021E038ED63
:1006A00034BF2083112421E040E040B941E0E0E084
:1006B000F0E2A0E0B0E111921197E9F721B942E030
:1006C000E0E0F0E2A0E0B0E130813111D6CF21933B
:1006D0001197D1F743E0E0E0F0E2A0E0B0E1308133
:1006E0003213CBCF11921197D1F744E0EFEFFFE235
:1006F000A0E0B0E130813111C0CF20833197119754
:10070000C9F745E0EFEFFFE2A0E0B0E1308132133E
:10071000B4CF108231971197C9F746E0E0E0F0E2DC
:10072000A0E0B0E130813111A8CF1197D9F7220FA5
:100730002111C4CFE0E4E0E020E038ED34BF2083B5
:1007400011241FBECFEFCDBFDFE2DEBF18BE19BE42
:100750001ABE1BBE10E2A4E0B0E2E4ECFEE200E050
:100760000BBF02C007900D92A43FB107D9F71BBE83
:1007700024E2A4EFB0E201C01D92A435B207E1F774
:100780000E946F0E0C944F170C9400000BB66BBFB9
:10079000602DFA01DC0102C007900D92215030401B
:1007A000D8F76BBF0895CF93DF9323E1829FC001F9
:1007B00011249C012C5F3D4FC9010896FC01A591B5
:1007C000B5911C920697FC01C591D5910496FC0148
:1007D00084918E83C9010496FC01C591D59103963D
:1007E000FC0184918E83C9010B96FC01C591D591C2
:1007F000188280E4888380E389838DE88A83C90135
:100800000D96FC0184918B8383E490E08C839D831F
:100810001E82F901859195913297888799871A866A
:100820003F96259135912C873D871E86FC012081BE
:10083000808184E888838AE090E0FD0180A391A311
:100840008FEF848782E0878387E08C93DF91CF915D
:1008500008950F931F93CF93DF93282F30E093E1F8
:10086000929FF001939FF00D11248F010C5F1D4F9B
:10087000D8011896FD01A591B5911C92D801149646
:10088000FD01C591D5913297339694919D83823025
:1008900079F483E1829FF001839FF00D1124EA5FD8
:1008A000FD4F0590F491E02D8091F520858312C0D5
:1008B00083E1829FF001839FF00D1124DF01AC5F83
:1008C000BD4FCD010296FC01C591D591329734966A
:1008D00084918D8383E1829FF001839FF00D112429
:1008E0009F012C5F3D4FC9010B96FC01C591D5912D
:1008F000188280E4888385E3898388ED8A83C9012F
:100900000E96FC0184918B8350E04C835D831E82A4
:10091000688779871A86F901859195918C879D87DB
:100920001E8680E98883DF91CF911F910F910895F2
:10093000CF93DF9323E1829FC00111248C5F9D4FF1
:10094000FC0138960590F491E02D1082FC0132965E
:10095000C591D5919C012A5F3F4FF90124912E83C7
:100960003297C591D5919C01295F3F4FF9012491A0
:100970002D8334960590F491E02D108280E48083DD
:10098000DF91CF910895EF92FF921F93CF93DF9362
:10099000C62F142FD22F823059F118F4813051F024
:1009A00005C08330F1F1843009F45BC08C2F0E94C4
:1009B000D30361C0842F0E94980483E48C9FB0010C
:1009C00011246A5F7E4D819FC00111249C012A5F22
:1009D0003E4D79014D2F50E0C9010E9425144D2F45
:1009E000B701812F0E9429048C2F0E94D30343C09A
:1009F00082E00E94980433E4C39FB00111246A5F2F
:100A00007E4D4D2F50E08CE891E20E9425144D2F31
:100A10006CE871E282E00E9429048C2F0E94D303CB
:100A20002AC01091F5208EE78093F52082E00E9485
:100A3000980483E4C89FB00111246A5F7E4D4D2F56
:100A400050E08CE891E20E9425144D2F6CE871E291
:100A500082E00E9429048C2F0E94D3031093F5207A
:100A60000AC023E4629FB00111246A5F7E4D4D2FBE
:100A70008C2F0E942904DF91CF911F91FF90EF905E
:100A80000895E82FF0E0E45CFD4F84918093F52019
:100A900008951F93CF93DF9310E041C083E1189F27
:100AA000F00111249F012C5F3D4FF901C591D591B3
:100AB0008EE28E8388E98F831B8288E18C8383E3B7
:100AC0008D83C9010896FC01C591D59118821982C0
:100AD0001A820296FC01849180688B831C828FEFBE
:100AE0009FEF8EA39FA389E090E088A799A782E15A
:100AF00090E08AA79BA71F82C9014196FC018491BF
:100B000090E0DC01A058BE4F319624912C93FC015B
:100B1000E857FE4F1082812F0E94D3031F5F1330CE
:100B200008F4BCCFDF91CF911F9108951F920F92CF
:100B30000FB60F92112408B60F9218BE0BB60F9283
:100B40001BBE2F933F938F939F93EF93FF9380E16F
:100B500080930C08809114019091150183349105C4
:100B600071F08FEF8093D621E0E1F1E024813581AF
:100B700083E4821B8093D32110821092000880911D
:100B8000D021882339F01092D0218FEF8093D62185
:100B90008093D321FF91EF919F918F913F912F915E
:100BA0000F900BBE0F9008BE0F900FBE0F901F90BE
:100BB00018951F920F920FB60F92112408B60F923C
:100BC00018BE0BB60F921BBE2F933F938F939F932C
:100BD000EF93FF9380E180934C08809124019091E2
:100BE00025018334910571F08FEF8093D721E0E2E6
:100BF000F1E02481358183E4821B8093D42110822B
:100C0000109240088091D121882339F01092D1218F
:100C10008FEF8093D7218093D421FF91EF919F9103
:100C20008F913F912F910F900BBE0F9008BE0F90A8
:100C30000FBE0F901F9018951F920F920FB60F9234
:100C4000112408B60F9218BE0BB60F921BBE2F933D
:100C50003F938F939F93EF93FF9380E180934C0B8F
:100C600080913401909135018334910571F08FEFBB
:100C70008093D821E0E3F1E02481358183E4821B75
:100C80008093D52110821092400B8091D22188232D
:100C900039F01092D2218FEF8093D8218093D52103
:100CA000FF91EF919F918F913F912F910F900BBEEC
:100CB0000F9008BE0F900FBE0F901F9018951F92B7
:100CC0000F920FB60F92112408B60F9218BE0BB6F2
:100CD0000F921BBE8F939F93EF93FF938091D02130
:100CE000E0E0F8E086EF9FEF80A391A38FEF848789
:100CF00088E0878387E08083FF91EF919F918F91B8
:100D00000F900BBE0F9008BE0F900FBE0F901F905C
:100D100018951F920F920FB60F92112408B60F92DA
:100D200018BE0BB60F921BBE8F939F93EF93FF934A
:100D30008091D121E0E4F8E086EF9FEF80A391A3BA
:100D40008FEF848788E0878387E08083FF91EF912E
:100D50009F918F910F900BBE0F9008BE0F900FBE0A
:100D60000F901F9018951F920F920FB60F9211249B
:100D700008B60F9218BE0BB60F921BBE8F939F93AF
:100D8000EF93FF938091D221E0E4FBE086EF9FEFA9
:100D900080A391A38FEF848788E0878387E0808397
:100DA000FF91EF919F918F910F900BBE0F9008BE16
:100DB0000F900FBE0F901F9018951F920F920FB6B5
:100DC0000F92112408B60F9218BE09B60F9219BEE1
:100DD0000BB60F921BBE2F933F934F935F936F936E
:100DE0007F938F939F93AF93BF93EF93FF9380E293
:100DF00080930C0880E00E94D303FF91EF91BF9194
:100E0000AF919F918F917F916F915F914F913F91A2
:100E10002F910F900BBE0F9009BE0F9008BE0F9040
:100E20000FBE0F901F9018951F920F920FB60F9242
:100E3000112408B60F9218BE09B60F9219BE0BB650
:100E40000F921BBE2F933F934F935F936F937F93AC
:100E50008F939F93AF93BF93EF93FF9380E2809321
:100E60004C0881E00E94D303FF91EF91BF91AF91B5
:100E70009F918F917F916F915F914F913F912F91B2
:100E80000F900BBE0F9009BE0F9008BE0F900FBEC3
:100E90000F901F9018951F920F920FB60F9211246A
:100EA00008B60F9218BE09B60F9219BE0BB60F9274
:100EB0001BBE2F933F934F935F936F937F938F93BB
:100EC0009F93AF93BF93EF93FF9380E280934C0B7C
:100ED00082E00E94D303FF91EF91BF91AF919F9168
:100EE0008F917F916F915F914F913F912F910F90D3
:100EF0000BBE0F9009BE0F9008BE0F900FBE0F9053
:100F00001F9018950F931F93CF93FC0112C08F0170
:100F10000F5F1F4F80811F928F938EEF91E09F9301
:100F20008F930E947E146C2F0F900F900F900F9054
:100F3000F801CFEFC60F6111EACF8CEF91E00E946C
:100F4000A614CF911F910F910895FF920F931F93B5
:100F5000CF93DF9300D01F92CDB7DEB710E04EC025
:100F6000812F90E0FC01EA52FE4D2081222309F4FA
:100F700044C0FC01EA52FE4D1082FC01ED52FE4DD0
:100F800000810F3F21F4812F0E94D30336C020E25D
:100F90002093A606033458F5111102C01092F420D4
:100FA000113019F421E02093F42043E4489F90018C
:100FB000499F300D1124C9018A5F9E4D89839A8310
:100FC000602FCE0101960E9482071B82F090F420D0
:100FD0009E012D5F3F4F412F602F89819A810E9492
:100FE000BE0F20E04F2D612F0E94C30403C0812F4C
:100FF0000E94D30380E28093A5061F5F133008F49C
:10100000AFCF2396CDBFDEBFDF91CF911F910F9160
:10101000FF9008950F931F93CF93DF93E0EBF0E0E1
:101020008FEF8083C0E0D6E088898760888B81EF6E
:101030008083E0E2F6E080898760808B80E20E9416
:101040005817C0E0D2E08C8781E20E9458178D8744
:1010500084E20E94581700E412E0F801848785E2D8
:101060000E945817F8018587188280E7898382E2F9
:101070008A831B8285E08C8381E088A390E399A317
:101080001AA21EA288A798E699A71AA61EA618AAB1
:1010900098E099AB1AAA1EAA18AE90E199AF1AAEC1
:1010A0001EAE988191609883E0E4FBE0108211828B
:1010B000128214828683178210A211A287E299E01D
:1010C00086A397A387E08083DF91CF911F910F9133
:1010D00008951092400B90E020E030E013C0E82F1C
:1010E000F0E0EE0FFF1FEE0FFF1FEE0FFF1FE90FE7
:1010F000F11DEE0FFF1FE55EFD4D40815181240F74
:10110000351F9F5F983058F387E08093400BC901EB
:1011100096958795969587959695879508951F92AC
:101120000F920FB60F92112408B60F9218BE09B68F
:101130000F9219BE0BB60F921BBE2F934F935F9366
:101140008F939F93AF93BF93EF93FF93809106028A
:101150008F30F1F4E0E0F2E086832091F620822FD8
:1011600090E044A155A1DC01AA0FBB1FA55EBD4DB7
:101170004D935C9344A555A5FC013896EE0FFF1FD7
:10118000E55EFD4D408351832F5F27702093F6204D
:101190008DE080930002FF91EF91BF91AF919F91FD
:1011A0008F915F914F912F910F900BBE0F9009BEC1
:1011B0000F9008BE0F900FBE0F901F901895E0EA99
:1011C000F6E088E0868380E18683AFE6B7E1119799
:1011D000F1F700C00000858308952091F72090E08A
:1011E000822B892B51F01092F720E0E2F7E082E0A9
:1011F000858398E09A95F1F786830895E0E2F7E019
:101200008289887F8160828B84E082878FEF8487E8
:1012100081E081870E94ED0808951F920F920FB61A
:101220000F92112408B60F9218BE8F938FEF809300
:10123000F7208F910F9008BE0F900FBE0F901F9058
:101240001895EF92FF920F93811104C08FEF809356
:10125000F92057C08091F820811134C0E3E8F2E210
:10126000808190E0A0E0B0E0BC0155274427818157
:1012700090E0982F8827A0E0B0E0842B952BA62B38
:10128000B72B2081822B80935F2290936022A093C2
:101290006122B093622284EF80930420E12CF12C30
:1012A00001E024E030E244EF6DE680E00E94A50C0E
:1012B00081E08093F820E0E4F8E010A211A287E03A
:1012C00080831FC0E3E8F2E2808190E0A0E0B0E01C
:1012D000BC0155274427818190E0982F8827A0E002
:1012E000B0E0842B952BA62BB72B2081822B8093EB
:1012F0005B2290935C22A0935D22B0935E221092B9
:10130000F9200F91FF90EF9008951F920F920FB662
:101310000F92112408B60F9218BE09B60F9219BE8B
:101320000BB60F921BBEEF92FF920F932F933F933A
:101330004F935F936F937F938F939F93AF93BF93DD
:10134000EF93FF931092400880E00E94560D8111A8
:1013500004C08FEF8093F9200EC00F2EF1E2EF2E24
:10136000F9E0FF2EF02D03E023E832E246EF6DE6D0
:1013700080E00E94F20CFF91EF91BF91AF919F919D
:101380008F917F916F915F914F913F912F910F912D
:10139000FF90EF900F900BBE0F9009BE0F9008BE0C
:1013A0000F900FBE0F901F9018951092FA20109278
:1013B0000004E0E5F0E0808184608083809151004A
:1013C00082FFFCCF8DE0809343008091010480FD7B
:1013D000FCCFE0E0F4E08FEF93E082879387108604
:1013E00011868FEF838381E08283808308951F922B
:1013F0000F920FB60F92112408B60F9218BE09B6BD
:101400000F9219BE8F939F93AF93BF938091FB2050
:101410009091FC20A091FD20B091FE200196A11D8D
:10142000B11D8093FB209093FC20A093FD20B093EE
:10143000FE208FEF8093FA20BF91AF919F918F9103
:101440000F9009BE0F9008BE0F900FBE0F901F9017
:101450001895CF93DF93E0E7F0E085818F7B85835C
:1014600086818F7B868380E033C0482F50E0BA01AD
:10147000660F771F9B01240F351F220F331F220F8A
:10148000331FF901EB5FFF4DA285B3851C92C28526
:10149000D3859CE09A83C285D3851B82C285D38580
:1014A0009BE99D83C285D38598EB9983C285D385BB
:1014B00091E09C8310821182128213821482158221
:1014C00016821782F901EB5FFF4D108611868F5F40
:1014D000823058F2DF91CF9108951F920F920FB68C
:1014E0000F92112408B60F9218BE09B60F9219BEBA
:1014F0000AB60F921ABE0BB60F921BBE2F933F93E4
:101500004F935F936F937F938F939F93AF93BF930B
:10151000CF93DF93EF93FF9380910520823009F4FE
:101520004CC030F4882309F4BDC0813041F0D6C0EE
:10153000833009F468C0843009F4A2C0CFC0E091C0
:101540000F20F0911020848186FFACC084818C70C4
:1015500009F0A8C080910720882319F0823041F05B
:10156000A1C0C5E0D0E28C81878382E08A83B6C0C7
:1015700080910A20882371F0C5E0D0E2AE81BF815E
:10158000CD0101968E839F838C9187838D818150BD
:101590008D83A4C081EC8483E5E0F0E2108282E0D8
:1015A000818380859185892B09F498C0E0910D2075
:1015B000F0910E2081E0099591C0E0910F20F0910B
:1015C0001020848186FF6EC084818C7109F06AC00E
:1015D00080910720882319F0813041F063C0C5E075
:1015E000D0E28C81878381E08A8378C0C5E0D0E235
:1015F0008B8190E0880F991F8160868382E08A83C7
:1016000083E088836BC0E0910F20F09110208481EB
:1016100088230CF047C084818C7009F043C080910E
:101620000720823009F03EC0E5E0F0E2858181507C
:1016300085838581882339F0E0910F20F091102077
:1016400082E083831DC0E5E0F0E2A681B781CD0191
:10165000019686839783C285D3858F818C93C285BB
:10166000D38587E08B83108282E08183808591859A
:10167000892B31F0E0910D20F0910E2081E0099549
:10168000E0910F20F0911020848188235CF4848104
:101690008C7041F487E08383E5E0F0E2108282E021
:1016A00081831CC0E5E0F0E2C285D38581EC8C83A8
:1016B000108281E081838091FF2090910021A09190
:1016C0000121B09102210196A11DB11D8093FF203F
:1016D00090930021A0930121B0930221FF91EF91FB
:1016E000DF91CF91BF91AF919F918F917F916F913A
:1016F0005F914F913F912F910F900BBE0F900ABEBB
:101700000F9009BE0F9008BE0F900FBE0F901F9054
:1017100018951F920F920FB60F92112408B60F92D0
:1017200018BE09B60F9219BE0AB60F921ABE0BB6B2
:101730000F921BBE2F933F934F935F936F937F93B3
:101740008F939F93AF93BF93CF93DF93EF93FF93C9
:1017500080911120823009F44CC030F4882309F4C0
:10176000BDC0813041F0D6C0833009F468C08430F8
:1017700009F4A2C0CFC0E0911B20F0911C2084810D
:1017800086FFACC084818C7009F0A8C080911320C2
:10179000882319F0823041F0A1C0C5E0D0E28889E9
:1017A000878382E08E87B6C080911620882371F0EF
:1017B000C5E0D0E2AA89BB89CD0101968A8B9B8BBB
:1017C0008C91878389898150898BA4C081EC848323
:1017D000E5E0F0E2148682E0858784899589892B8B
:1017E00009F498C0E0911920F0911A2081E0099540
:1017F00091C0E0911B20F0911C20848186FF6EC077
:1018000084818C7109F06AC080911320882319F0BB
:10181000813041F063C0C5E0D0E28889878381E0F0
:101820008E8778C0C5E0D0E28F8590E0880F991F41
:101830008160868382E08E8783E08C876BC0E09135
:101840001B20F0911C20848188230CF047C08481E8
:101850008C7009F043C080911320823009F03EC0A3
:10186000E5E0F0E281898150818B8189882339F01C
:10187000E0911B20F0911C2082E083831DC0E5E0F5
:10188000F0E2A289B389CD010196828B938BC68940
:10189000D7898F818C93C689D78987E08B831486FB
:1018A00082E0858784899589892B31F0E091192020
:1018B000F0911A2081E00995E0911B20F0911C2005
:1018C000848188235CF484818C7041F487E0838375
:1018D000E5E0F0E2148682E085871CC0E5E0F0E2F6
:1018E000C689D78981EC8C83148681E085878091B5
:1018F000FF2090910021A0910121B0910221019639
:10190000A11DB11D8093FF2090930021A093012180
:10191000B0930221FF91EF91DF91CF91BF91AF91F1
:101920009F918F917F916F915F914F913F912F91F7
:101930000F900BBE0F900ABE0F9009BE0F9008BE0D
:101940000F900FBE0F901F901895EF92FF920F937C
:10195000CF93DF9390E0FC01EE0FFF1FE80FF91F1C
:10196000EE0FFF1FEE0FFF1FEB5FFF4D5081511178
:1019700032C0DC01AA0FBB1FFD01E80FF91FEE0FFB
:10198000FF1FEE0FFF1FEB5FFF4DC285D38559810F
:101990005F73598351E050831182128263834483C1
:1019A000058326833783E086F1860284F385E02D64
:1019B000218120682183FD01E80FF91FEE0FFF1F31
:1019C000EE0FFF1FEB5FFF4D0284F385E02D660FE6
:1019D000668381E001C080E0DF91CF910F91FF909D
:1019E000EF900895EF92FF920F93CF93DF9390E0E3
:1019F000FC01EE0FFF1FE80FF91FEE0FFF1FEE0FA8
:101A0000FF1FEB5FFF4D50815523C9F08091FF20F0
:101A100090910021A0910121B09102210196A11D78
:101A2000B11D8093FF2090930021A0930121B093DA
:101A3000022183E492E00E94A61480E031C0DC0120
:101A4000AA0FBB1FFD01E80FF91FEE0FFF1FEE0FDE
:101A5000FF1FEB5FFF4DC285D38559815F735983AB
:101A600052E050831182128263834483058326836C
:101A70003783E086F1860284F385E02D218120689A
:101A80002183FD01E80FF91FEE0FFF1FEE0FFF1F6F
:101A9000EB5FFF4D0284F385E02D660F668381E0E6
:101AA000DF91CF910F91FF90EF90089590E0FC01AE
:101AB000EE0FFF1FE80FF91FEE0FFF1FEE0FFF1FC6
:101AC000EB5FFF4D918181E0923009F080E0089555
:101AD000CF9361E08CEC91E00E945117A895809122
:101AE000820080FDFCCF6BE280E890E00E945117FD
:101AF000E8E7F0E0808180930321CFEFC08380B1DD
:101B0000E6E8F2E2808381B1818322B183B190E083
:101B1000982F8827822B82839383E0E0F6E014825B
:101B20008EEB808380898760808B86898760868B37
:101B3000E0E2F6E084E084838FED8083858987602E
:101B4000858BE0E4F6E08AEA84838BEB80838289EC
:101B5000877C8861828B8689877C8861868BE0E6BA
:101B6000F6E098E0948389E380838189877C8861AB
:101B7000818B8289877C8861828BE0E8F6E088E14E
:101B8000848388EB80838689877C8861868B8289C1
:101B9000877C8861828BE0EAF6E084EA84838CEBC0
:101BA00080838689877C8861868BE0EEF6E01482EC
:101BB000C083E0E0F7E0C483C083E0E2F7E0148292
:101BC0008BEE80838289877C8861828BE0ECF7E0F2
:101BD0001482C083E0EEF7E014828DEF808381E011
:101BE00080934800E0E7F0E0908385E08183828382
:101BF00013821482158216820E940013E0ECF1E039
:101C000084858D7F848784858860848780ED809338
:101C1000C00A0E94290A0E94FE08E0E0F1E080E488
:101C20008083C38380E88083CF9108958BE992E01D
:101C30009F938F930E947E14809103210F900F90A9
:101C400085FF08C087E992E09F938F930E947E14DE
:101C50000F900F908091032184FF08C082E992E0E9
:101C60009F938F930E947E140F900F908091032179
:101C700083FF08C08DE892E09F938F930E947E14AB
:101C80000F900F908091032182FF08C088E892E0B6
:101C90009F938F930E947E140F900F908091032149
:101CA00081FF08C083E892E09F938F930E947E1487
:101CB0000F900F908091032185FF08C08FE792E07D
:101CC0009F938F930E947E140F900F908CE792E069
:101CD0009F938F930E947E140F900F900895E3EAD4
:101CE000F2E084910E94680D0E941314C2E0CF9329
:101CF00088E38F938AE492E09F938F930E947E14EF
:101D00000E94160EE0E2F7E0C5838FE697E10197A7
:101D1000F1F700C00000C6830E94D5090E94DF08C9
:101D20000E9452120E9449050E940A0867E082EA56
:101D300090E00E94511778940E94E11220E040E464
:101D400050E060E881E80E94671280E280934606D6
:101D50000F900F900F900F90A8950E94A507FCCFB1
:101D6000DC018FEF9FEF0FC0EC91E827892F9927B7
:101D7000F0E0EE0FFF1FEB50FD4F4591559184278A
:101D80009527622F11962FEF260F6111EDCF089541
:101D9000FC01809104218083618384E0828313822B
:101DA0004483158246830895AC0190E011C0E92F69
:101DB000F0E09F01220F331F220F331FE20FF31FAA
:101DC000E353FD4F259135912417350729F09F5F87
:101DD000983068F38FEF0895892F089582EE90E28E
:101DE0009F938F938BE290E29F938F930E946A144C
:101DF0000F900F900F900F9080E0089582EA90E28C
:101E00009F938F938BE290E29F938F930E946A142B
:101E10000F900F900F900F9089E0089582E790E265
:101E20009F938F938BE290E29F938F930E946A140B
:101E30000F900F900F900F9080E008958CE590E246
:101E40009F938F938BE290E29F938F930E946A14EB
:101E5000109204210F900F900F900F9080E0089542
:101E600082E490E29F938F938BE290E29F938F9313
:101E70000E946A140F900F900F900F9080E00895C9
:101E8000CF93DF93EC018CEC90E29F938F938BE2E6
:101E900090E29F938F930E946A148091042188831B
:101EA00083E0898389E08A831B8285E08C8381E0DB
:101EB0008D8380E00E9469089E838F8381E00E9469
:101EC0006908988789871B861C868A810F900F90E6
:101ED0000F900F908E5FDF91CF910895CF93DF9396
:101EE000EC018EEB90E29F938F938BE290E29F93B5
:101EF0008F930E946A149B81809104210F900F9010
:101F00000F900F90811106C08FEF890F8F3110F461
:101F100090930421809104211F928F9383EC92E08F
:101F20009F938F930E947E140F900F900F900F90AD
:101F300080E0DF91CF910895CF93DF93EC018DE89E
:101F400090E29F938F938BE290E29F938F930E94F6
:101F50006A148B810E9441058B811F928F9389EBBC
:101F600092E09F938F930E947E148DB79EB7089640
:101F70008DBF9EBF8FEFDF91CF910895AF92BF923B
:101F8000CF92DF92EF92FF920F931F93CF93DF9345
:101F900000D0CDB7DEB789839A83423009F49CC064
:101FA0007C01FC018081803E49F0909104218917D9
:101FB00039F08F71891392C082E09BC000E001C0AC
:101FC00001E06901162F6EEF610FCE0101960E94AC
:101FD000B00EA12EB12CF5013297EE0DFF1D208120
:101FE00031818217930709F07BC0F701818190E06E
:101FF000382F2227802F90E0880F991F8295929585
:10200000907F9827807F9827822B932B22812F7196
:10201000822B0E94D40E8F3F51F480E390E29F9375
:102020008F930E947E140F900F9080E062C08823EF
:1020300009F458C090E0FC01EE0FFF1FEE0FFF1FE8
:10204000E80FF91FE153FD4F249130E0F2E0AF1AA1
:10205000B1082A153B0509F047C020910421F7017A
:102060002083E981FA8123E02183FC01EE0FFF1F29
:10207000EE0FFF1F8E0F9F1FFC01E053FD4F0590D9
:10208000F491E02D612F89819A810995F601808371
:10209000002361F18F3F51F489819A81FC014281D3
:1020A00061810E94C80E89E0F6018083F60190816B
:1020B0009923F1F029813A81092F10E0025011098A
:1020C000020F131F6EEF690FC9010E94B00EF801D5
:1020D0008083918384E00DC081E00BC080E009C063
:1020E00080E007C085E005C080E003C083E001C058
:1020F00080E00F900F90DF91CF911F910F91FF9093
:10210000EF90DF90CF90BF90AF9008951F93CF9343
:10211000DF93E0ECF1E012851286809187239091A5
:1021200088238530910569F445EF54E060E0772716
:102130000BB66BBFFA0187919791A791B6910BBE31
:1021400012C0049769F447EB55E060E077270BB6BF
:102150006BBFFA0187919791A791B6910BBE03C00F
:102160000E94F71214C0C0918923D0918A23C81706
:10217000D90708F0EC019E0180EC92E20E94C603B0
:102180001093CA018C2F0E94EE120E94E712DF9179
:10219000CF911F9108951F93CF93DF93E0ECF1E06F
:1021A00012851286823061F0833089F0813009F027
:1021B0003AC04BE556E060E07727C2E1D0E038C096
:1021C00049E256E060E07727C2E3D0E031C06230F8
:1021D000A9F028F4662341F0613059F033C0603132
:1021E00091F06E3EA9F02EC045E256E060E0772700
:1021F00013C04BE156E060E077270EC045E056E0A3
:1022000060E0772709C043EF55E060E0772704C01E
:102210004FED55E060E077270BB66BBFFA01C79131
:102220000BBED0E005C0C0E0D0E040E050E0BA0115
:102230009E0180EC92E20E94C6031093CA018C2F8B
:102240009D2F02C080E090E0DF91CF911F91089513
:10225000823010F481E0089580E008958091842315
:102260008430A9F128F4882341F08330F1F03DC097
:10227000853099F1863059F138C084E491E4AFE4B7
:10228000BCE48093002090930120A0930220B0939F
:102290000320A89563E180E890E00E94511780E058
:1022A0000E94EE120E94E7120895809189238730E0
:1022B00008F086E0E0ECF2E21082148211821282D1
:1022C000138215820E94EE120E94E712089580E0A8
:1022D0000E94EE120E94E71208951092C02281E03F
:1022E0000E94EE120E94E71208950E94F7120895CC
:1022F000809183238F71813049F48091872390915D
:102300008823019719F40E942E1108950E94F71254
:102310000895809183238F7139F4809184238232D0
:1023200061F40E9486100895813039F480918423ED
:10233000823219F40E94861008950E94F7120895BF
:1023400080E0089580918423853029F130F4813034
:10235000E1F088F08330C9F073C0883009F440C0E0
:1023600018F4863019F16CC0893009F443C08B3001
:1023700009F453C065C0E0ECF2E21082118282E001
:102380000E94EE120E94E712089580E00E94EE1271
:102390000E94E7120895809185238F77809305210D
:1023A00080E00E94EE120E94E7120895E3E8F3E253
:1023B000628183810E94CB10009779F0409189233C
:1023C00050918A234817590708F0AC0121E060ECCE
:1023D00072E280E80E94BF1208950E94F7120895E9
:1023E000809182238093C02281E00E94EE120E949D
:1023F000E7120895809185230E942811882351F0C7
:1024000080E00E94EE1280918523809382230E94B7
:10241000E71208950E94F7120895E3E8F3E262815B
:102420007381848195810E94A011882331F080E01E
:102430000E94EE120E94E71208950E94F71208957A
:102440000E94F712089580918323807619F08032DC
:1024500021F006C00E94A21108950E9478110895EB
:102460000E9489110895CF93DF93E0E9F2E2C0EC76
:10247000D4E0EE83FF831B82108283E481838CE8A7
:1024800093E28483958382E0808783E6818780EC72
:1024900092E2848795878091F220806C8883DF9117
:1024A000CF910895CF93DF938AE10E945817C0EC33
:1024B000D4E08AAF8BE10E9458178BAF82E4888703
:1024C00083E089870E943312DF91CF910895CF93E3
:1024D000DF93C82FCF73D0E0082E000C990BE92FA3
:1024E000EE1FEE27EE1FF0E0DE01AA0FBB1FAE0FBE
:1024F000BF1FAA0FBB1FAA0FBB1FAA0FBB1FA0574E
:10250000BD4D82E28C9349305105A8F0413151050F
:10251000A0F04132510598F04134510590F0413816
:10252000510588F0413081E0580778F04130524041
:1025300070F486E00DC080E00BC081E009C082E04D
:1025400007C083E005C084E003C085E001C087E0E8
:10255000682B222311F080E001C088E0682BCC0FAB
:10256000DD1FEC0FFD1FEE0FFF1FEE0FFF1FEE0F25
:10257000FF1FE057FD4D6183DF91CF9108950F93C9
:10258000E82FEF73F0E0082E000C990B292F221F83
:102590002227221F30E0EE0FFF1FE20FF31FEE0F86
:1025A000FF1FEE0FFF1FEE0FFF1FE057FD4D64836F
:1025B0007583168217824283538302E206930F913A
:1025C0000895E0ECF4E081818160818308950F93A8
:1025D000E0E9F2E202E706930F910895482F50E0F8
:1025E00021E060EC72E280E80E94BF120895E0E909
:1025F000F2E281818460818381858460818708958E
:102600000F931F93CF93DF93E0E5F0E080E48283A4
:1026100080818A6080838091510083FFFCCF80910C
:10262000510081FFFCCF00E510E084E0F8018683D3
:102630008DE10E945817C0E6D0E08A838CE10E94A9
:1026400058178B838BE18D8387EB8E8381E08883A2
:1026500084ECF801858380818061808380915100C2
:1026600084FFFCCF60E081E490E00E94511764E0B9
:1026700080E490E00E94511783E080934400DF9152
:10268000CF911F910F9108951F920F920FB60F9245
:10269000112408B60F9218BE09B60F9219BE0BB6D8
:1026A0000F921BBE2F933F934F935F936F937F9334
:1026B0008F939F93AF93BF93EF93FF938091CA043F
:1026C0008E7019F08EE08093CA048091CA0480FF56
:1026D00003C081E08093CA048091CB0484FF05C0CD
:1026E00080E18093CA040E94331280E68093CA047A
:1026F000FF91EF91BF91AF919F918F917F916F91DA
:102700005F914F913F912F910F900BBE0F9009BE9B
:102710000F9008BE0F900FBE0F901F9018951F923C
:102720000F920FB60F92112408B60F9218BE09B679
:102730000F9219BE0BB60F921BBE0F932F933F93B0
:102740004F935F936F937F938F939F93AF93BF93B9
:10275000EF93FF93E0ECF4E0148283E084878091B0
:10276000902284FF1AC088E0ECE8F3E2A3E8B3E229
:1027700001900D928A95E1F7E0E9F2E202E3069317
:1027800080918323882334F08091892390918A2338
:10279000892B49F40E94231206C085FF04C0E0E99A
:1027A000F2E200E206938091982284FF05C0E8E9F6
:1027B000F2E200E306930EC085FF0CC0E8E9F2E206
:1027C00000E2069380910521882321F08093C304C1
:1027D000109205218091A82285FF04C0E8EAF2E268
:1027E00000E20693FF91EF91BF91AF919F918F917E
:1027F0007F916F915F914F913F912F910F910F902A
:102800000BBE0F9009BE0F9008BE0F900FBE0F9029
:102810001F9018959091A10A95FFFCCF8093A00A74
:1028200080E090E00895E0EAFAE086E9868380E9B6
:102830008783138288E0848383E085838DE190E23F
:1028400080935024909351240895FB01DC0102C031
:1028500001900D9241505040D8F708950F931F9367
:10286000CF93DF93FB01238121FD03C08FEF9FEF07
:102870002CC022FF16C04681578124813581421722
:10288000530744F4A081B1819D012F5F3F4F208306
:1028900031838C93268137812F5F3F4F2683378387
:1028A00014C08B01EC01FB010084F185E02D09953A
:1028B000892BE1F6D80116968D919C911797019678
:1028C00016968D939C931797CE01DF91CF911F9110
:1028D0000F910895CF93DF93CDB7DEB7AE014B5F75
:1028E0005F4FFA0161917191AF01809150249091F5
:1028F00051240E94D714DF91CF9108950F931F9315
:10290000CF93DF93CDB7DEB7AE01495F5F4FDA01FA
:102910006D917D91AD010EE414E2F8018281938105
:10292000DC0113962C911397286013962C930E9428
:10293000D714D8011296ED91FC9113972381277F2C
:102940002383DF91CF911F910F9108950F931F93D0
:10295000CF93DF938C01E0915024F0915124838137
:1029600081FF1BC0D0E0C0E0F80184916091502449
:1029700070915124DB011896ED91FC9119978823F1
:1029800041F00995892B11F0DFEFCFEF0F5F1F4F5B
:10299000EBCF8AE00995892B19F08FEF9FEF02C0EA
:1029A0008D2F9C2FDF91CF911F910F9108952F9222
:1029B0003F924F925F926F927F928F929F92AF92CF
:1029C000BF92CF92DF92EF92FF920F931F93CF931C
:1029D000DF93CDB7DEB72B97CDBFDEBF6C017B0198
:1029E0008A01FC0116821782838181FFCCC1CE014E
:1029F00001963C01F6019381F70193FD859193FFC8
:102A000081917F01882309F4BAC1853239F493FD9D
:102A1000859193FF81917F01853229F4B60190E081
:102A20000E942E14E7CF912C212C312CFFE1F315BD
:102A3000D8F08B3279F038F4803279F08332A1F417
:102A4000232D20611DC08D3261F0803369F4232D68
:102A5000216016C0832D8260382EE32DE4603E2E67
:102A60002AC0F32DF8601DC037FC2DC020ED280FC3
:102A70002A3040F08E32B9F436FC81C1232D206417
:102A8000322E19C036FE06C08AE0989E200D112411
:102A9000922E11C0EAE02E9E200D1124222EF32D3D
:102AA000F0623F2E08C08C3621F4832D8068382ECA
:102AB00002C0883641F4F70193FD859193FF81911F
:102AC0007F018111B3CF982F9F7D9554933028F4C7
:102AD0000C5F1F4F9FE399830DC0833631F083371E
:102AE00071F0833509F059C021C0F80180818983D4
:102AF0000E5F1F4F88248394912C530113C028012B
:102B0000F2E04F0E511CF801A080B18036FE03C0E8
:102B1000692D70E002C06FEF7FEFC5010E94E616DD
:102B20004C018201F32DFF773F2E16C0280122E0D1
:102B3000420E511CF801A080B18036FE03C0692D01
:102B400070E002C06FEF7FEFC5010E94DB164C0101
:102B5000F32DF0683F2E820133FC1BC0822D90E0E4
:102B600088169906B0F4B60180E290E00E942E1417
:102B70002A94F4CFF50137FC859137FE81915F01EE
:102B8000B60190E00E942E1421102A9421E0821AAE
:102B900091088114910471F7E8C0843611F08936E8
:102BA00041F5F80137FE07C0608171818281938110
:102BB0000C5F1F4F08C060817181072E000C880BCD
:102BC000990B0E5F1F4FF32DFF763F2E97FF09C025
:102BD00090958095709561957F4F8F4F9F4FF068CE
:102BE0003F2E2AE030E0A3010E94F116882E8618BD
:102BF00045C0853731F4232D2F7EB22E2AE030E0F8
:102C000025C0932D997FB92E8F36C1F018F48835E1
:102C100079F0B5C0803719F0883721F0B0C0E92FBE
:102C2000E061BE2EB4FE0DC0FB2DF460BF2E09C0C6
:102C300034FE0AC0292F2660B22E06C028E030E0FC
:102C400005C020E130E002C020E132E0F801B7FE2B
:102C500007C060817181828193810C5F1F4F06C024
:102C60006081718180E090E00E5F1F4FA3010E94A0
:102C7000F116882E8618FB2DFF773F2E36FE0DC0ED
:102C8000232D2E7FA22E891458F434FE0BC032FC63
:102C900009C0832D8E7EA82E05C0B82CA32C03C09E
:102CA000B82C01C0B92CA4FE0FC0FE01E80DF11D27
:102CB0008081803321F49A2D997EA92E09C0A2FE2D
:102CC00006C0B394B39404C08A2D867809F0B394F7
:102CD000A3FC11C0A0FE06C0B21488F4280C922CEC
:102CE0009B180EC0B21460F4B60180E290E00E941E
:102CF0002E14B394F7CFB21418F42B1802C0982CEA
:102D0000212CA4FE10C0B60180E390E00E942E1496
:102D1000A2FE17C0A1FC03C088E790E002C088E5CE
:102D200090E0B6010CC08A2D867859F0A1FE02C051
:102D30008BE201C080E2A7FC8DE2B60190E00E9428
:102D40002E14891438F4B60180E390E00E942E140A
:102D50009A94F7CF8A94F301E80DF11D8081B601B2
:102D600090E00E942E148110F5CF222009F442CE6B
:102D7000B60180E290E00E942E142A94F6CFF6016C
:102D80008681978102C08FEF9FEF2B96CDBFDEBF6C
:102D9000DF91CF911F910F91FF90EF90DF90CF9037
:102DA000BF90AF909F908F907F906F905F904F906B
:102DB0003F902F900895FC010590615070400110E4
:102DC000D8F7809590958E0F9F1F0895FC01615054
:102DD000704001900110D8F7809590958E0F9F1F3D
:102DE0000895FA01AA27283051F1203181F1E894A1
:102DF0006F936E7F6E5F7F4F8F4F9F4FAF4FB1E0EE
:102E00003ED0B4E03CD0670F781F891F9A1FA11DE8
:102E1000680F791F8A1F911DA11D6A0F711D811DE9
:102E2000911DA11D20D009F468943F912AE0269FAE
:102E300011243019305D3193DEF6CF010895462F0D
:102E40004770405D4193B3E00FD0C9F7F6CF462FEE
:102E50004F70405D4A3318F0495D31FD4052419357
:102E600002D0A9F7EACFB4E0A69597958795779514
:102E70006795BA95C9F700976105710508959B019B
:102E8000AC010A2E06945795479537952795BA9524
:102E9000C9F7620F731F841F951FA01D0895F89432
:102EA000FFCF1BBEFC0128ED24BF60832FBF089518
:102EB00042E0992700C0FC014093CA01849110921E
:102EC000CA010895F400000000000000000000A006
:102ED0000400000000000000000000B0040000003A
:102EE00002000000000A140000000025730D0A0013
:102EF000756E6B6E6F776E20636F6D6D616E640DB6
:102F00000A00636D645F707265706172655F666F01
:102F1000725F62726F61646361737400636D645F9A
:102F20007365745F69645F7A65726F5F72657365FC
:102F30007400636D645F707265706172655F666F67
:102F4000725F696E697469616C69736500636D6451
:102F50005F656E61626C655F70726F6A6563746FE6
:102F60007200636D645F66696E616C6973655F6949
:102F70006E697469616C69736174696F6E00636D09
:102F8000645F61737369676E5F696400636D645F3A
:102F90006765745F74656C656D657472795F68757B
:102FA0006200636D645F7365745F6368616E6E6514
:102FB0006C000200FFFFFFFFFFFFFFFFFFFFFFFFAF
:102FC000FFFFFFFFFFFFFFFFFFFFFFFFFFFFFFFF11
:102FD000FFFFFFFFFFFFFFFFFFFFFFFFFFFFFFFF01
:102FE000FFFFFFFFFFFFFFFFFFFFFFFFFFFFFFFFF1
:102FF000FFFFFFFFFFFFFFFFFFFFFFFFFFFFFFFFE1
:020000021000EC
:100000000C94FE800C9414810C9414810C94148133
:100010000C9414810C9414810C9414810C9414810C
:100020000C9414810C9414810C9414810C941481FC
:100030000C9414810C9414810C9414810C941481EC
:100040000C9414810C9414810C9414810C941481DC
:100050000C9414810C9414810C9414810C941481CC
:100060000C9414810C9414810C9414810C941481BC
:100070000C9414810C9414810C9414810C941481AC
:100080000C9414810C9414810C9414810C9414819C
:100090000C9414810C9414810C9414810C9414818C
:1000A0000C9414810C9414810C9414810C9414817C
:1000B0000C9414810C9414810C9414810C9414816C
:1000C0000C9414810C9414810C9414810C9414815C
:1000D0000C9414810C9414810C9414810C9414814C
:1000E0000C9414810C9414810C9414810C9414813C
:1000F0000C9414810C9414810C9414810C9414812C
:100100000C9414810C9414810C9414810C9414811B
:100110000C9414810C9414810C9414810C9414810B
:100120000C9414810C9414810C9414810C941481FB
:100130000C9414810C9414810C9414810C941481EB
:100140000C9414810C9414810C9414810C941481DB
:100150000C9414810C9414810C9414810C941481CB
:100160000C9414810C9414810C9414810C941481BB
:100170000C9414810C9414810C9414810C941481AB
:100180000C9414810C9414810C9414810C9414819B
:100190000C9414810C9414810C9414810C9414818B
:1001A0000C9414810C9414810C9414810C9414817B
:1001B0000C9414810C9414810C9414810C9414816B
:1001C0000C9414810C9414810C9414810C9414815B
:1001D0000C9414810C9414810C9414810C9414814B
:1001E0000C9414810C9414810C9414810C9414813B
:1001F0000C9414810C9414810C94148111241FBE4E
:10020000CFEFCDBFDFE2DEBF18BE19BE1ABE1BBEE8
:1002100021E2A0E0B0E201C01D92A030B207E1F7F8
:100220000E94E2810C94E8840C9400803BB78BBF61
:10023000FB0186913BBF089542E099274EC041E003
:100240004CC08093C00188278093C1018093C20174
:1002500047E033D0CB0108953BB748E10C9472815D
:100260003BB74AE10C9472813BB740E20C94728137
:10027000EE27FF2719BEDC0143E24093CA0150E894
:100280002DE90D901D9020933400E89532965A95F3
:10029000C1F7112408953BB78BBFCB0144E20C9406
:1002A000728148E30AC049E308C02091CF0127FDCD
:1002B000FCCF22272093CA0108954093CA0128ED5C
:1002C00031E0209334003093CB016091C4017091F0
:1002D000C5018091C60199270895FC014093CA0188
:1002E00084910895FC014093CA012DE920933400C4
:1002F000E89511243BBF08958091CF0187FDFCCF85
:100300000895CF93C82F0E947C8120E2C29FC00134
:100310001124E0ECF1E080839183128285E38287EF
:10032000EF93FF930F932F93EBECF1E008ED21E0B7
:1003300004BF20832F910F91FF91EF91CF910C94E7
:100340007C812091B10825FFFCCF8093B00880917B
:10035000B10885FFFCCF9093B00808950F931F93C9
:100360002091B10825FFFCCF6093B008072F182F0C
:10037000292F33274091B10845FFFCCF0093B008E7
:100380008C01222733274091B10845FFFCCF009311
:10039000B008892F9927AA27BB272091B10825FFEC
:1003A000FCCF8093B0081F910F9108950F939C018B
:1003B0009FB7F8941BBEF90108ED04BF60839FBF8F
:1003C0000F91089580E28093A0068CE0809325062B
:1003D00084E08093210688E08093210680E8809362
:1003E000410683E08093B60896E99093B70810928F
:1003F000B3089CE19093B4088093B50880E38093A0
:100400004106E3EFF1E03197F1F700C0000080937F
:1004100046068091B0088091B0081092000481E0F7
:10042000809343008091010480FDFCCF8FEF9FEF0C
:1004300080930A0490930B0410920804109209040C
:100440001092020481E08093000480E28093A6066B
:1004500080910804909109048130984070F080E206
:100460008093A5061092000488ED84BF1092A2002C
:100470001CBE1BBEE0E0F0E009958091B10887FF4B
:10048000E7CF8091B0088E3619F787E893E101979E
:10049000F1F700C0000080E380934506E3EFF1E050
:1004A0003197F1F700C000008091B10885FFFCCFC3
:1004B00081E48093B00883EF91E00197F1F700C0E9
:1004C000000080E3809346068091B0088091B008D8
:1004D00080E28093A506A0E2CA2EC1E4BB24B394B7
:1004E000B6E4DB2ED0E0ED2ED1E2FD2ED0E38091FC
:1004F000B10887FFFCCF8091B008A895C092A706ED
:10050000853609F487C148F5853409F4BDC1D8F4AE
:10051000833209F45EC18A3209F4F1C1813239F7BC
:100520000E9455810E943481E7E8F3E13197F1F7A9
:1005300000C00000D093450683EF91E00197F1F7EA
:1005400000C0000023C0873561F1833609F4E4C0A0
:10055000853569F6E0E0F0E2F7C1823709F4A9C019
:1005600058F4893609F4E5C08D3609F406C286369A
:1005700009F0BDCF10E04AC1853709F4C9C18637FB
:1005800009F41AC1833709F0B2CFFEC08091B108D7
:1005900085FFFCCFC093B008E3EFF1E03197F1F7AE
:1005A0002DC08091B10887FFFCCF6091B00870E04A
:1005B000762F66278091B10887FFFCCF8091B00825
:1005C0008B01082B0F3F110511F108F187E893E12A
:1005D0000197F1F700C00000D0934506E3EFF1E08A
:1005E0003197F1F700C000008091B10885FFFCCF82
:1005F000D092B00883EF91E00197F1F700C00000BE
:10060000D09346068091B0088091B00870CFE7E89B
:10061000F3E13197F1F700C00000D093450683EF76
:1006200091E00197F1F700C000008091B10885FFCB
:10063000FCCFC093B008E3EFF1E03197F1F700C0D1
:100640000000D09346068091B0088091B008E0E0A9
:10065000F0E28091B10887FFFCCF8091B0088193D0
:10066000EE16FF06B1F70E94558180E090E20E94ED
:100670003881C801A0E0B0E06627782F892F9A2F33
:100680000E944B810E94558187E893E10197F1F721
:1006900000C00000D0934506E3EFF1E03197F1F799
:1006A00000C000008091B10885FFFCCFC093B00866
:1006B000A1CF8091B10887FFFCCFE091B008F0E0B6
:1006C000FE2FEE278091B10887FFFCCF8091B00804
:1006D000E82BEF3FF10531F028F08091B10885FF5C
:1006E000FCCFE9C08091B10885FFFCCFC093B00872
:1006F0001E2F002780E091E00E94A181C801939500
:10070000F80121913091B10835FFFCCF2093B0085A
:10071000E817F907B1F7EBCE8091B10885FFFCCF60
:10072000C093B0080E9451810E94AE810E94538103
:100730004CC18091B10885FFFCCFC093B00884E024
:1007400090E00E94A181809190009091B10895FF66
:10075000FCCF8093B008809191009091B10895FFF3
:10076000FCCF8093B008809192009091B10895FFE2
:10077000FCCF8093B008809193009091B10895FFD1
:10078000FCCF8093B008B3CE8091B10885FFFCCF39
:10079000C093B0088BE090E00E94A18118E0812F07
:1007A0000E941C819091B10895FFFCCF8093B00806
:1007B0001F5F1331A1F79BCE8091B10885FFFCCF5D
:1007C000C093B0088091B10885FFFCCFB092B0080B
:1007D0008ECE8091B10885FFFCCFC093B008E7E8CA
:1007E000F3E13197F1F700C0000061E089E790E0A4
:1007F0000E94D68100007BCE9091B10895FFFCCF7E
:100800008093B0081F5F163009F471CE812F0E94CB
:100810002181F2CF8091B10887FFFCCF8090B00892
:10082000912C982C88248091B10887FFFCCF80916F
:10083000B008882AF0E48F16910428F08091B1085E
:1008400085FFFCCF38C08091B10885FFFCCFC093F5
:10085000B00845E0880C991C4A95E1F78401105FC7
:1008600080E290E00E94A18120EE821A2FEE920A8F
:10087000F80181919091B10895FFFCCF8093B00869
:100880008E169F06B1F733CE8091B10887FFFCCF5B
:100890008091B00890E0982F88272091B10827FF19
:1008A000FCCF2091B008822B8034910538F08091E4
:1008B000B10885FFFCCFD092B00819CE2091B108C5
:1008C00025FFFCCFC093B00825E0880F991F2A951B
:1008D000E1F79C01205E3F4EFC01F05F4091B108C2
:1008E00047FFFCCF4091B00841932E173F07B1F767
:1008F0000E9481818091B10885FFFCCF3BC00E949E
:1009000055810E942C818091B10885FFFCCF32C0B7
:100910008091B10885FFFCCFC093B00880E091E0E2
:100920000E94A18100E010E0C8010E941F81909107
:10093000B10895FFFCCF8093B0080F5F1F4F0115E2
:1009400081E0180789F7D3CD8091B10887FFFCCFEC
:100950008091B0088193EE16FF06B1F70E94558191
:1009600080E090E20E9438810E9430818091B1083D
:1009700085FFFCCFC093B008BACD8091B10885FF48
:10098000FCCFC093B00860E071E080E090E00E948E
:10099000AE8160E070E081E090E00E94AE8160E0B6
:1009A00071E080E090E00E94AE8160E070E180E064
:1009B00090E00E94AE8160E270E080E090E00E94F2
:1009C000AE8160E078E080E090E00E94AE818FCD63
:1009D000F894FFCFFFFFFFFFFFFFFFFFFFFFFFFFC9
:1009E000FFFFFFFFFFFFFFFFFFFFFFFFFFFFFFFF17
:1009F000FFFFFFFFFFFFFFFFFFFFFFFFFFFFFFFF07
:100A0000FFFFFFFFFFFFFFFFFFFFFFFFFFFFFFFFF6
:100A1000FFFFFFFFFFFFFFFFFFFFFFFFFFFFFFFFE6
:00000001FF
